{
    "contractName": "MyContract",
    "abi": [
        {
            "inputs": [
                {
                    "internalType": "uint256",
                    "name": "_id",
                    "type": "uint256"
                },
                {
                    "internalType": "string",
                    "name": "_title",
                    "type": "string"
                },
                {
                    "internalType": "string",
                    "name": "_author",
                    "type": "string"
                }
            ],
            "name": "addBook",
            "outputs": [],
            "stateMutability": "nonpayable",
            "type": "function"
        },
        {
            "inputs": [
                {
                    "internalType": "uint256",
                    "name": "_id",
                    "type": "uint256"
                },
                {
                    "internalType": "string",
                    "name": "_title",
                    "type": "string"
                },
                {
                    "internalType": "string",
                    "name": "_author",
                    "type": "string"
                }
            ],
            "name": "addMyBook",
            "outputs": [],
            "stateMutability": "nonpayable",
            "type": "function"
        },
        {
            "inputs": [
                {
                    "internalType": "uint256",
                    "name": "",
                    "type": "uint256"
                }
            ],
            "name": "books",
            "outputs": [
                {
                    "internalType": "string",
                    "name": "title",
                    "type": "string"
                },
                {
                    "internalType": "string",
                    "name": "author",
                    "type": "string"
                }
            ],
            "stateMutability": "view",
            "type": "function"
        },
        {
            "inputs": [],
            "name": "getValue",
            "outputs": [
                {
                    "internalType": "uint256",
                    "name": "",
                    "type": "uint256"
                }
            ],
            "stateMutability": "pure",
            "type": "function"
        },
        {
            "inputs": [],
            "name": "myAddress",
            "outputs": [
                {
                    "internalType": "address",
                    "name": "",
                    "type": "address"
                }
            ],
            "stateMutability": "view",
            "type": "function"
        },
        {
            "inputs": [
                {
                    "internalType": "address",
                    "name": "",
                    "type": "address"
                },
                {
                    "internalType": "uint256",
                    "name": "",
                    "type": "uint256"
                }
            ],
            "name": "myBooks",
            "outputs": [
                {
                    "internalType": "string",
                    "name": "title",
                    "type": "string"
                },
                {
                    "internalType": "string",
                    "name": "author",
                    "type": "string"
                }
            ],
            "stateMutability": "view",
            "type": "function"
        },
        {
            "inputs": [],
            "name": "myBytes32",
            "outputs": [
                {
                    "internalType": "bytes32",
                    "name": "",
                    "type": "bytes32"
                }
            ],
            "stateMutability": "view",
            "type": "function"
        },
        {
            "inputs": [],
            "name": "myInt",
            "outputs": [
                {
                    "internalType": "int256",
                    "name": "",
                    "type": "int256"
                }
            ],
            "stateMutability": "view",
            "type": "function"
        },
        {
            "inputs": [],
            "name": "myString",
            "outputs": [
                {
                    "internalType": "string",
                    "name": "",
                    "type": "string"
                }
            ],
            "stateMutability": "view",
            "type": "function"
        },
        {
            "inputs": [],
            "name": "myStruct",
            "outputs": [
                {
                    "internalType": "uint256",
                    "name": "myuint",
                    "type": "uint256"
                },
                {
                    "internalType": "string",
                    "name": "myString",
                    "type": "string"
                }
            ],
            "stateMutability": "view",
            "type": "function"
        },
        {
            "inputs": [],
            "name": "myUint",
            "outputs": [
                {
                    "internalType": "uint256",
                    "name": "",
                    "type": "uint256"
                }
            ],
            "stateMutability": "view",
            "type": "function"
        },
        {
            "inputs": [],
            "name": "myUint256",
            "outputs": [
                {
                    "internalType": "uint256",
                    "name": "",
                    "type": "uint256"
                }
            ],
            "stateMutability": "view",
            "type": "function"
        },
        {
            "inputs": [],
            "name": "myUint8",
            "outputs": [
                {
                    "internalType": "uint8",
                    "name": "",
                    "type": "uint8"
                }
            ],
            "stateMutability": "view",
            "type": "function"
        },
        {
            "inputs": [
                {
                    "internalType": "uint256",
                    "name": "",
                    "type": "uint256"
                }
            ],
            "name": "names",
            "outputs": [
                {
                    "internalType": "string",
                    "name": "",
                    "type": "string"
                }
            ],
            "stateMutability": "view",
            "type": "function"
        },
        {
            "inputs": [
                {
                    "internalType": "uint256",
                    "name": "",
                    "type": "uint256"
                }
            ],
            "name": "stringArray",
            "outputs": [
                {
                    "internalType": "string",
                    "name": "",
                    "type": "string"
                }
            ],
            "stateMutability": "view",
            "type": "function"
        },
        {
            "inputs": [
                {
                    "internalType": "uint256",
                    "name": "",
                    "type": "uint256"
                }
            ],
            "name": "uintArray",
            "outputs": [
                {
                    "internalType": "uint256",
                    "name": "",
                    "type": "uint256"
                }
            ],
            "stateMutability": "view",
            "type": "function"
        },
        {
            "inputs": [],
            "name": "valueCount",
            "outputs": [
                {
                    "internalType": "uint256",
                    "name": "",
                    "type": "uint256"
                }
            ],
            "stateMutability": "view",
            "type": "function"
        },
        {
            "inputs": [
                {
                    "internalType": "string",
                    "name": "_value",
                    "type": "string"
                }
            ],
            "name": "valueCount",
            "outputs": [],
            "stateMutability": "nonpayable",
            "type": "function"
        },
        {
            "inputs": [
                {
                    "internalType": "uint256",
                    "name": "",
                    "type": "uint256"
                }
            ],
            "name": "values",
            "outputs": [
                {
                    "internalType": "string",
                    "name": "",
                    "type": "string"
                }
            ],
            "stateMutability": "view",
            "type": "function"
        }
    ],
    "bytecode": "6001600081905560c0604052600d60809081526c48656c6c6f2c20776f726c642160981b60a05262000032908262000352565b506c48656c6c6f2c20776f726c642160981b6002819055600160038190556004819055600580546001600160a81b031916745a0b54d5dc17e0aadc383d2db43b0a0d3e029c4c011790556040805180820182529182528051808201909152600d8152602080820193909352918101829052805160069081559091600790620000bb908262000352565b50506040805160608101825260018152600260208201526003918101829052620000e9925060089162000185565b506040518060600160405280604051806040016040528060058152602001646170706c6560d81b81525081526020016040518060400160405280600681526020016562616e616e6160d01b81525081526020016040518060400160405280600681526020016518d85c9c9bdd60d21b815250815250600990600362000170929190620001da565b503480156200017e57600080fd5b506200041e565b828054828255906000526020600020908101928215620001c8579160200282015b82811115620001c8578251829060ff16905591602001919060010190620001a6565b50620001d692915062000233565b5090565b82805482825590600052602060002090810192821562000225579160200282015b8281111562000225578251829062000214908262000352565b5091602001919060010190620001fb565b50620001d69291506200024a565b5b80821115620001d6576000815560010162000234565b80821115620001d65760006200026182826200026b565b506001016200024a565b5080546200027990620002c3565b6000825580601f106200028a575050565b601f016020900490600052602060002090810190620002aa919062000233565b50565b634e487b7160e01b600052604160045260246000fd5b600181811c90821680620002d857607f821691505b602082108103620002f957634e487b7160e01b600052602260045260246000fd5b50919050565b601f8211156200034d57600081815260208120601f850160051c81016020861015620003285750805b601f850160051c820191505b81811015620003495782815560010162000334565b5050505b505050565b81516001600160401b038111156200036e576200036e620002ad565b62000386816200037f8454620002c3565b84620002ff565b602080601f831160018114620003be5760008415620003a55750858301515b600019600386901b1c1916600185901b17855562000349565b600085815260208120601f198616915b82811015620003ef57888601518255948401946001909101908401620003ce565b50858210156200040e5787850151600019600388901b60f8161c191681555b5050505050600190811b01905550565b610990806200042e6000396000f3fe608060405234801561001057600080fd5b50600436106101215760003560e01c8063493ec707116100ad5780638bc9fe6c116100715780638bc9fe6c1461023d5780639ae918c714610253578063a7dbce1c14610266578063c950aaca1461026f578063e2a4b2af1461028257600080fd5b8063493ec707146101e85780634b3e7e0c146101fb5780635e383d21146102045780636422c4c814610217578063687440461461022a57600080fd5b806326eb4dbb116100f457806326eb4dbb1461018e57806327d3553f146101965780632cb777a6146101b75780634622ab03146101c0578063492bfa18146101e057600080fd5b8063028414f21461012657806306540f7e1461013b578063209652551461015757806326b85ee11461015e575b600080fd5b610139610134366004610673565b6102a1565b005b61014460005481565b6040519081526020015b60405180910390f35b6001610144565b6005546101769061010090046001600160a01b031681565b6040516001600160a01b03909116815260200161014e565b600a54610144565b6101a96101a43660046106e0565b6102ee565b60405161014e92919061075e565b61014460035481565b6101d36101ce36600461078c565b610425565b60405161014e91906107a5565b6101d36104bf565b6101396101f6366004610673565b6104cc565b61014460025481565b6101d361021236600461078c565b610505565b6101d361022536600461078c565b610530565b6101a961023836600461078c565b610540565b61024561055b565b60405161014e9291906107bf565b61014461026136600461078c565b61056f565b61014460045481565b61013961027d3660046107e0565b610590565b60055461028f9060ff1681565b60405160ff909116815260200161014e565b60408051808201825283815260208082018490526000868152600c90915291909120815181906102d1908261089a565b50602082015160018201906102e6908261089a565b505050505050565b600d60209081526000928352604080842090915290825290208054819061031490610815565b80601f016020809104026020016040519081016040528092919081815260200182805461034090610815565b801561038d5780601f106103625761010080835404028352916020019161038d565b820191906000526020600020905b81548152906001019060200180831161037057829003601f168201915b5050505050908060010180546103a290610815565b80601f01602080910402602001604051908101604052809291908181526020018280546103ce90610815565b801561041b5780601f106103f05761010080835404028352916020019161041b565b820191906000526020600020905b8154815290600101906020018083116103fe57829003601f168201915b5050505050905082565b600b602052600090815260409020805461043e90610815565b80601f016020809104026020016040519081016040528092919081815260200182805461046a90610815565b80156104b75780601f1061048c576101008083540402835291602001916104b7565b820191906000526020600020905b81548152906001019060200180831161049a57829003601f168201915b505050505081565b6001805461043e90610815565b6040805180820182528381526020808201849052336000908152600d825283812087825290915291909120815181906102d1908261089a565b600a818154811061051557600080fd5b90600052602060002001600091509050805461043e90610815565b6009818154811061051557600080fd5b600c6020526000908152604090208054819061031490610815565b60068054600780549192916103a290610815565b6008818154811061057f57600080fd5b600091825260209091200154905081565b600a80546001810182556000919091527fc65a7bb8d6351c1cf70c95a316cc6a92839c986682d98bc35f958f4883f9d2a8016105cc828261089a565b5050565b634e487b7160e01b600052604160045260246000fd5b600082601f8301126105f757600080fd5b813567ffffffffffffffff80821115610612576106126105d0565b604051601f8301601f19908116603f0116810190828211818310171561063a5761063a6105d0565b8160405283815286602085880101111561065357600080fd5b836020870160208301376000602085830101528094505050505092915050565b60008060006060848603121561068857600080fd5b83359250602084013567ffffffffffffffff808211156106a757600080fd5b6106b3878388016105e6565b935060408601359150808211156106c957600080fd5b506106d6868287016105e6565b9150509250925092565b600080604083850312156106f357600080fd5b82356001600160a01b038116811461070a57600080fd5b946020939093013593505050565b6000815180845260005b8181101561073e57602081850181015186830182015201610722565b506000602082860101526020601f19601f83011685010191505092915050565b6040815260006107716040830185610718565b82810360208401526107838185610718565b95945050505050565b60006020828403121561079e57600080fd5b5035919050565b6020815260006107b86020830184610718565b9392505050565b8281526040602082015260006107d86040830184610718565b949350505050565b6000602082840312156107f257600080fd5b813567ffffffffffffffff81111561080957600080fd5b6107d8848285016105e6565b600181811c9082168061082957607f821691505b60208210810361084957634e487b7160e01b600052602260045260246000fd5b50919050565b601f82111561089557600081815260208120601f850160051c810160208610156108765750805b601f850160051c820191505b818110156102e657828155600101610882565b505050565b815167ffffffffffffffff8111156108b4576108b46105d0565b6108c8816108c28454610815565b8461084f565b602080601f8311600181146108fd57600084156108e55750858301515b600019600386901b1c1916600185901b1785556102e6565b600085815260208120601f198616915b8281101561092c5788860151825594840194600190910190840161090d565b508582101561094a5787850151600019600388901b60f8161c191681555b5050505050600190811b0190555056fea2646970667358221220423f72c4f781f98ca4156179795c9083f69e36f9d2171bb8246ea7ef6f5bbef264736f6c63430008130033",
    "sourcePath": "c:/Users/roydi/Documents/CS Stuff/HashCIBSeminar/Practice1/MyContract.sol",
    "compiler": {
        "name": "solc",
        "version": "0.8.19+commit.7dd6d404"
    },
    "functionHashes": {
        "addBook(uint256,string,string)": "028414f2",
        "addMyBook(uint256,string,string)": "493ec707",
        "books(uint256)": "68744046",
        "getValue()": "20965255",
        "myAddress()": "26b85ee1",
        "myBooks(address,uint256)": "27d3553f",
        "myBytes32()": "4b3e7e0c",
        "myInt()": "2cb777a6",
        "myString()": "492bfa18",
        "myStruct()": "8bc9fe6c",
        "myUint()": "06540f7e",
        "myUint256()": "a7dbce1c",
        "myUint8()": "e2a4b2af",
        "names(uint256)": "4622ab03",
        "stringArray(uint256)": "6422c4c8",
        "uintArray(uint256)": "9ae918c7",
        "valueCount()": "26eb4dbb",
        "valueCount(string)": "c950aaca",
        "values(uint256)": "5e383d21"
    },
    "gasEstimates": {
        "creation": {
            "codeDepositCost": "489600",
            "executionCost": "infinite",
            "totalCost": "infinite"
        },
        "external": {
            "addBook(uint256,string,string)": "infinite",
            "addMyBook(uint256,string,string)": "infinite",
            "books(uint256)": "infinite",
            "getValue()": "249",
            "myAddress()": "2438",
            "myBooks(address,uint256)": "infinite",
            "myBytes32()": "2329",
            "myInt()": "2351",
            "myString()": "infinite",
            "myStruct()": "infinite",
            "myUint()": "2330",
            "myUint256()": "2350",
            "myUint8()": "2423",
            "names(uint256)": "infinite",
            "stringArray(uint256)": "infinite",
            "uintArray(uint256)": "4608",
            "valueCount()": "2304",
            "valueCount(string)": "infinite",
            "values(uint256)": "infinite"
        }
    }
}